{
  "contractName": "Election",
  "abi": [
    {
      "inputs": [],
      "payable": false,
      "stateMutability": "nonpayable",
      "type": "constructor"
    },
    {
      "anonymous": false,
      "inputs": [
        {
          "indexed": true,
          "internalType": "uint256",
          "name": "_candidateId",
          "type": "uint256"
        }
      ],
      "name": "votedEvent",
      "type": "event"
    },
    {
      "constant": true,
      "inputs": [
        {
          "internalType": "uint256",
          "name": "",
          "type": "uint256"
        }
      ],
      "name": "candidates",
      "outputs": [
        {
          "internalType": "uint256",
          "name": "id",
          "type": "uint256"
        },
        {
          "internalType": "string",
          "name": "name",
          "type": "string"
        },
        {
          "internalType": "uint256",
          "name": "voteCount",
          "type": "uint256"
        }
      ],
      "payable": false,
      "stateMutability": "view",
      "type": "function"
    },
    {
      "constant": true,
      "inputs": [],
      "name": "candidatesCount",
      "outputs": [
        {
          "internalType": "uint256",
          "name": "",
          "type": "uint256"
        }
      ],
      "payable": false,
      "stateMutability": "view",
      "type": "function"
    },
    {
      "constant": true,
      "inputs": [],
      "name": "candidatesCountT",
      "outputs": [
        {
          "internalType": "uint256",
          "name": "",
          "type": "uint256"
        }
      ],
      "payable": false,
      "stateMutability": "view",
      "type": "function"
    },
    {
      "constant": true,
      "inputs": [
        {
          "internalType": "address",
          "name": "",
          "type": "address"
        }
      ],
      "name": "voters",
      "outputs": [
        {
          "internalType": "bool",
          "name": "",
          "type": "bool"
        }
      ],
      "payable": false,
      "stateMutability": "view",
      "type": "function"
    },
    {
      "constant": false,
      "inputs": [
        {
          "internalType": "uint256",
          "name": "x",
          "type": "uint256"
        }
      ],
      "name": "set_value",
      "outputs": [],
      "payable": false,
      "stateMutability": "nonpayable",
      "type": "function"
    },
    {
      "constant": false,
      "inputs": [
        {
          "internalType": "uint256",
          "name": "_candidateId",
          "type": "uint256"
        }
      ],
      "name": "vote",
      "outputs": [],
      "payable": false,
      "stateMutability": "nonpayable",
      "type": "function"
    }
  ],
  "bytecode": "0x608060405234801561001057600080fd5b5060008090505b600354811015610072576100656040518060400160405280600c81526020017f43616e64696461746520313000000000000000000000000000000000000000008152506100bc60201b60201c565b8080600101915050610017565b506100b76040518060400160405280600b81526020017f43616e64696461746520310000000000000000000000000000000000000000008152506100bc60201b60201c565b6101dd565b600260008154809291906001019190505550604051806060016040528060025481526020018281526020016000815250600160006002548152602001908152602001600020600082015181600001556020820151816001019080519060200190610127929190610138565b506040820151816002015590505050565b828054600181600116156101000203166002900490600052602060002090601f016020900481019282601f1061017957805160ff19168380011785556101a7565b828001600101855582156101a7579182015b828111156101a657825182559160200191906001019061018b565b5b5090506101b491906101b8565b5090565b6101da91905b808211156101d65760008160009055506001016101be565b5090565b90565b61045b806101ec6000396000f3fe608060405234801561001057600080fd5b50600436106100625760003560e01c80630121b93f146100675780632d35a8a2146100955780633477ee2e146100b35780635359c62114610168578063a3ec138d14610186578063b0f2b72a146101e2575b600080fd5b6100936004803603602081101561007d57600080fd5b8101908080359060200190929190505050610210565b005b61009d61032e565b6040518082815260200191505060405180910390f35b6100df600480360360208110156100c957600080fd5b8101908080359060200190929190505050610334565b6040518084815260200180602001838152602001828103825284818151815260200191508051906020019080838360005b8381101561012b578082015181840152602081019050610110565b50505050905090810190601f1680156101585780820380516001836020036101000a031916815260200191505b5094505050505060405180910390f35b6101706103f6565b6040518082815260200191505060405180910390f35b6101c86004803603602081101561019c57600080fd5b81019080803573ffffffffffffffffffffffffffffffffffffffff1690602001909291905050506103fc565b604051808215151515815260200191505060405180910390f35b61020e600480360360208110156101f857600080fd5b810190808035906020019092919050505061041c565b005b6000803373ffffffffffffffffffffffffffffffffffffffff1673ffffffffffffffffffffffffffffffffffffffff16815260200190815260200160002060009054906101000a900460ff161561026657600080fd5b60008111801561027857506002548111155b61028157600080fd5b60016000803373ffffffffffffffffffffffffffffffffffffffff1673ffffffffffffffffffffffffffffffffffffffff16815260200190815260200160002060006101000a81548160ff0219169083151502179055506001600082815260200190815260200160002060020160008154809291906001019190505550807ffff3c900d938d21d0990d786e819f29b8d05c1ef587b462b939609625b684b1660405160405180910390a250565b60025481565b6001602052806000526040600020600091509050806000015490806001018054600181600116156101000203166002900480601f0160208091040260200160405190810160405280929190818152602001828054600181600116156101000203166002900480156103e65780601f106103bb576101008083540402835291602001916103e6565b820191906000526020600020905b8154815290600101906020018083116103c957829003601f168201915b5050505050908060020154905083565b60035481565b60006020528060005260406000206000915054906101000a900460ff1681565b806003819055505056fea265627a7a7231582063a751129a78205931e1dde98755dcce8aa7261aea7ae668930ca4957aeae09764736f6c63430005100032",
  "source": "// SPDX-License-Identifier: MIT\r\n\r\npragma solidity >= 0.5.16;\r\n\r\n\r\ncontract Election{\r\n    //Model a Candidate\r\n    struct Candidate{\r\n        uint id;\r\n        string name;\r\n        uint voteCount;\r\n    }\r\n    //Store accounts that have votes\r\n    mapping(address=>bool)public voters;\r\n    //Store Candidates\r\n    //Fetch Candididates\r\n    mapping(uint=>Candidate) public candidates;\r\n\r\n    //Store total number of Candidates\r\n    uint public candidatesCount;\r\n    uint public candidatesCountT;\r\n\r\n    event votedEvent(\r\n        uint indexed _candidateId\r\n    );\r\n\r\n    function set_value(uint x) public{\r\n        candidatesCountT = x;\r\n    }\r\n\r\n    constructor() public{\r\n        for(uint i=0;i<candidatesCountT;i++)\r\n            //addCandidate(string(abi.encodePacked(\"Candidate \", i)));\r\n            addCandidate(\"Candidate 10\");\r\n        addCandidate(\"Candidate 1\");\r\n    }\r\n\r\n    \r\n    //add candidate to our mapping\r\n    function addCandidate(string memory _name) private{\r\n        candidatesCount++;\r\n        candidates[candidatesCount]=Candidate(candidatesCount,_name,0);\r\n    }\r\n\r\n    function vote(uint _candidateId) public {\r\n        //require that they havent voted yet\r\n        require(!voters[msg.sender]);\r\n\r\n        //require a valid candidate\r\n        require(_candidateId>0 && _candidateId<=candidatesCount);\r\n        //record that voter has voted\r\n        voters[msg.sender]=true;\r\n        //update candidate vote count\r\n        candidates[_candidateId].voteCount++;\r\n\r\n        //trigger voted event\r\n        emit votedEvent(_candidateId);\r\n    }\r\n}",
  "sourcePath": "C:/Users/NUPUR/Blockchain Projects/Vote1.0/contracts/Elections.sol",
  "compiler": {
    "name": "solc",
    "version": "0.5.16+commit.9c3226ce.Emscripten.clang"
  },
  "schemaVersion": "3.4.1",
  "updatedAt": "2021-10-04T11:19:56.549Z",
  "devdoc": {
    "methods": {}
  },
  "userdoc": {
    "methods": {}
  }
}